:020000000C945E
:020002003000CC
:020004000C945A
:020006005000A8
:020008000C9456
:02000A005000A4
:02000C000C9452
:02000E005000A0
:020010000C944E
:0200120050009C
:020014000C944A
:02001600500098
:020018000C9446
:02001A00500094
:02001C000C9442
:02001E00500090
:020020000C943E
:0200220050008C
:020024000C943A
:02002600500088
:020028000C9436
:02002A00500084
:02002C000C9432
:02002E00500080
:020030000C942E
:0200320050007C
:020034000C942A
:02003600500078
:020038000C9426
:02003A00500074
:02003C000C9422
:02003E00500070
:020040000C941E
:0200420050006C
:020044000C941A
:02004600500068
:020048000C9416
:02004A00500064
:02004C000C9412
:02004E00500060
:020050000C940E
:0200520050005C
:020054000C940A
:02005600500058
:020058000C9406
:02005A00500054
:02005C000C9402
:02005E00500050
:02006000112469
:020062001FBEBF
:02006400CFEFDC
:02006600DFE0D9
:02006800DEBFF9
:02006A00CDBF08
:02006C0010E0A2
:02006E00A0E60A
:02007000B0E0FE
:02007200EAEDB5
:02007400F0E0BA
:020076000FEF8A
:020078000395EE
:02007A000BBFBA
:02007C0004C0BE
:02007E00D89513
:020080000D92DF
:020082003196B5
:02008400C8F3BF
:02008600A036A2
:02008800B107BE
:02008A00C9F7B4
:02008C0010E082
:02008E00A0E6EA
:02009000B0E0DE
:0200920001C0AB
:020094001D92BB
:02009600A03692
:02009800B107AE
:02009A00E1F78C
:02009C000C94C2
:02009E0052000E
:0200A0000C94BE
:0200A20000005C
:0200A40015B88D
:0200A60083E0F5
:0200A80086B917
:0200AA0015B887
:0200AC0084E0EE
:0200AE0086B911
:0200B00015B881
:0200B20015B87F
:0200B40016B87C
:0200B60015B87B
:0200B80015B879
:0200BA0016B876
:0200BC0015B875
:0200BE0015B873
:0200C00086B107
:0200C200E0E07C
:0200C400F0E862
:0200C60086B101
:0200C800819322
:0200CA0080ECC8
:0200CC00E03022
:0200CE00F80731
:0200D000D1F766
:0200D20081E0CB
:0200D40085B9EC
:0200D60010B860
:0200D800FFCF58
:00000001FF
