:020000040000FA
:200000000C9430000C9452000C9463000C94580A0C9450000C9450000C9450000C94500059
:200020000C9450000C9450000C9450000C9450000C9450000C9450000C9450000C94500040
:200040000C9450000C9450000C9450000C9450000C9450000C9450000C9450000C94500020
:2000600011241FBECFEFDFE0DEBFCDBF12E0A0E6B0E0E4E2F1E30FEF03950BBF04C0D89595
:200080000D923196C8F3AA3BB107C9F71BE0AAEBB2E001C01D92A635B107E1F70C94CB0674
:2000A0000C9400001F920F920FB60F9211248F9380B382958F708093FD058F910F900FBEA7
:2000C0000F901F9018951F920F920FB60F9211240F900FBE0F901F901895CF93DF93CDB779
:2000E000DEB722970FB6F894DEBF0FBECDBF1A82198205C089819A8101969A838983898180
:200100009A81885E9B41B4F322960FB6F894DEBF0FBECDBFDF91CF910895282F40E050E048
:2001200010C04FEF5FEF10C01399FBCF8FB18823D9F72FB927FF02C04F5F5F4F220F615054
:2001400070401616170684F3952F842F0895CF93DF93C0E0D0E068E070E080E00E948D00D0
:2001600097FF03C08FEF9FEF07C0219685E0CF35D80789F780E090E0DF91CF910895CF9335
:20018000DF93C0E0D0E065E070E080E00E948D0097FF03C08FEF9FEF06C02196C430D105CD
:2001A00091F780E090E0DF91CF910895CF93DF93C0E0D0E065E070E08FEF0E948D0097FF7E
:2001C00003C08FEF9FEF06C02196C430D10591F780E090E0DF91CF910895CF93DF93D92F68
:2001E000C82F61E070E080E80E948D0097FD20C08D2F992768E070E00E948D0097FD18C0BD
:2002000061E070E080E80E948D0097FD11C068E070E08C2F0E948D0097FD0AC061E070E0E0
:2002200080E80E948D0097FD03C080E090E002C08FEF9FEFDF91CF91089584E088B9E0E060
:20024000F0E8108234968FE8E03AF807D1F7E2E0F0E880E7808334969FE8E23AF907D1F7D9
:200260000895E62F94E098B9A82FBB27AA0FBB1FAF5FBE4F0D90BC91A02DFF27EE0FFF1FA8
:20028000EF5FFE4F808191818A1B9B0B8896FB2FEA2F20E030E004C0108234962F5F3F4FB8
:2002A00028173907C9F7129620E030E040E704C04C9314962F5F3F4F28173907C9F70895DB
:2002C000CF93DF93D92FC82F4931B8F56832A8F5E42FFF27EE0FFF1FEF5FFE4FA62FBB2747
:2002E000AA0FBB1FAA0FBB1F80819181A80FB91F84E088B91FC0803288F4FB2FEA2F90E0D1
:2003000003C0108234969F5F9817D9F79927880F991F880F991FA80FB91F07C0E82FFF2750
:20032000EF55FF4F80818C9314968FE8A13AB80721F0219688818823F1F6DF91CF91089580
:2003400084E088B9E0E0F0E8A0E0B8E780818D93349680E9E030F807C9F7E2E0F0E8A0E004
:20036000BCE780818D93349680E9E230F807C9F7089584E088B9E0E0F0E8A0E0B8E78D919E
:200380008083349680E9E030F807C9F7E2E0F0E8A0E0BCE78D918083349680E9E230F80736
:2003A000C9F708950F93B52FA42FF32FE22F15B823E026B9282F392F4427552726B9272FCA
:2003C000382F492F552726B915B815B866B915B815B815B886B120E030E0402F552747FD4D
:2003E000509506C086B18083E40FF51F2F5F3F4F2A173B07B9F781E085B90F910895F92FBE
:20040000E82F80E097E003C0908334968F5F8617D9F70895F92FE82F80E090E703C090836A
:2004200034968F5F8617D9F708951F93CF93DF93282F392F84E088B9A4E0B0E890E78CE30E
:20044000E4E4F1E89C9380833496149640E8AC39B407C1F782E78093008083E780939C8040
:2004600081E78093A0808DE380933C8182E38093408183E38093DC8141E061E0932F822FBD
:200480000E9460016CE086EA90E80E94FF0110E020E0213021F481B18823E9F720E0812FC0
:2004A000992764E370E00E943218D92FC82FCA55DF470A9B0DC0123059F06CE08C2F9D2FE5
:2004C0000E940A021F5F6CE08C2F9D2FC4960EC00B9B0FC0112369F06CE08C2F9D2F0E947E
:2004E0000A0211506CE08C2F9D2FC4970E94FF01D2CF099903C0119BCCCF13E681B188239C
:20050000E9F7812F9927DF91CF911F910895EF92FF920F931F93CF93DF93D92FC82FF62E11
:20052000E42E84E088B9862F869504E1081B10E00EC06F2D7727812F99270E943218165F63
:20054000412F602F8C0F9D1F0E94600119501E1581F768E282E496E80E94FF01FF2440E01B
:20056000413021F481B18823E9F740E02F2D3327932F822F60EA70E00E943218082F192FEA
:20058000D92FC82FCE5BD9470C9B12C08E2D992701972817390761F068E28C2F9D2F0E9444
:2005A0000A02F39468E2912F802F8E5199470FC00D9B10C0FF2071F068E28C2F9D2F0E94F6
:2005C0000A02FA9468E28C2F9D2F805A90400E94FF01C8CF099909C0089B03C082E3F80E91
:2005E00004C0119BBDCF43E6F42E81B18823E9F78F2D9927DF91CF911F910F91FF90EF904D
:2006000008950F931F93CF93DF936DE070E00E943218D92FC82FC050D04A68E18AE00E940E
:20062000310100E010C08881882339F0412F602F8C2F9D2F0E9460012D961F5F193199F757
:20064000035F073211F01AE0EECFDF91CF911F910F91089515B885E086B915B815B886B148
:2006600015B886B13099FECF81E085B9089515B886B915B815B815B881E085B90895DF9284
:20068000EF92FF920F931F93CF93DF93E62EF72E082F192FD52FC42FD22E86E00E9437032F
:2006A00015B882E086B9912F802FAA27BB2786B9EF2CF02E012F1127E6B815B815B815B8C5
:2006C00016B880E090E029914C2F5D2FDD2011F027B901C026B9D52FC42F019621E08030FE
:2006E000920789F715B881E085B90E942A03DF91CF911F910F91FF90EF90DF900895982FA5
:20070000843619F4E0E0F1E014C0E82FE295EF70FF27E955FD4F8081292F280F312D311DD4
:20072000F32FE22F932F822F8F7090700A9708F036968E2F8F70805D80938B028E2F9F2FEB
:20074000807F9070A4E096958795AA95E1F7282F205D20938A02E070F1708F2F9927805D99
:2007600080938902803339F48EE280938902203311F480938A024CE06FE082E892E00E94FD
:20078000600108958F929F92AF92BF92CF92DF92EF92FF920F931F93CF93DF93CDB7DEB752
:2007A0006A970FB6F894DEBF0FBECDBF41E0682F792F8C2F9D2F03960E941C15882339F0CA
:2007C0004CE06CE081E792E00E9460015AC086E00E94370382E40E947F0387EC0E9437038F
:2007E00081E40E947F030E942A0380E40E947F03EE24FF2400271127A12C98E0B92EC12C6C
:20080000D12C83E0882E912C8C0E9D1E2C2F3D2F2F5F3F4F40E051E060E070E2992D882D6F
:200820000E94A51221E040E050E2912F802F7F2D6E2D0E943F039B2D8A2DB5E09695879517
:20084000BA95E1F70E947F0380E091E0A0E0B0E0E80EF91E0A1F1B1F0894A108B108C10835
:20086000D10890E0E91690E0F90698E0090790E0190739F684E00E943703992D882D0E941D
:2008800025116A960FB6F894DEBF0FBECDBFDF91CF911F910F91FF90EF90DF90CF90BF9090
:2008A000AF909F908F9008953F924F925F926F927F928F929F92AF92BF92CF92DF92EF9222
:2008C000FF920F931F93CF93DF93CDB7DEB76A970FB6F894DEBF0FBECDBF862E972EA82EAF
:2008E000B92E422E532E642E752EC02ED12E3E2C86E40E947F037EE7F72EF8B801E020E0EB
:2009000030E840E050E860E070E084E090E00E94D20185E40E947F038FE788B920E030E832
:2009200040E050E860E070E884E090E00E94D20184E40E947F030C2F1D2F0D5F1F4F41E070
:200940007D2D6C2D912F802F0E941C15882339F04CE06CE081E792E00E946001A5C0F8B8D4
:20096000792D682D605070482C2F3D2F2F5F3F4F552D442D912F802F0E94A51283E40E942D
:200980007F03912F802F0E94251186E00E94370382E40E947F0315B888ED86B915B815B8A7
:2009A00084E086B915B815B816B815B815B816B815B815B815B881E085B981E40E947F0335
:2009C0000E942A0380E40E947F03F8B820E040E050E860E070E084E090E00E943F03A12CA3
:2009E00061E8B62E80E40E947F035FEFC52ED12CE12C41E0F42E44E0042F112D8EE788B969
:200A00009B2D8A2D8050904D8050904110F4232D01C020E05B2D4A2D912F802F7F2D6E2D3F
:200A20000E943F0380E091E0A80EB91E9D2D8C2D96958795969587950E947F030894C108DA
:200A4000D10880E091E0A0E0B0E0E80EF91E0A1F1B1F90E8C916D10489F600E010E08FE77B
:200A600088B9512F402F40505048602F712F88279927605070488B4F9F4F20E00E943F036C
:200A80009D2D8C2D96958795969587950E947F030894C108D10800501F4FA0E800301A074C
:200AA000F1F684E00E9437036A960FB6F894DEBF0FBECDBFDF91CF911F910F91FF90EF909A
:200AC000DF90CF90BF90AF909F908F907F906F905F904F903F9008958F929F92AF92BF9240
:200AE000CF92DF92EF92FF920F931F93CF93DF93882E992E60E670E08BEB92E00E94CA146F
:200B0000182F8130B9F1813040F0823019F08730E9F535C0AA24BB2426C0C0E0D0E6AA2456
:200B2000BB2412C08091EC0484FD0EC0FD2FEC2FADEEB4E08DE00D9001928150E1F72D9635
:200B400018820894A11CB11C64EE74E08BEB92E00E94400E882321F48091ED04882311F7E2
:200B6000A114B104D9F44AE06DE082E690E00E94600114C04AE06CE082E790E004C04AE0DB
:200B80006FE083E890E00E946001F4C04AE061E18FE890E00E946001AA24BB24112309F044
:200BA000E9C0A114B10409F4E5C080E090E00E9401036CE082E496E80E94FF0120E002E452
:200BC00016E8C0E0D0E0CC24DD24213021F481B18823E9F720E00A9B28C0FFE0EF2EF12C0D
:200BE000EC0EFD1E9D2D8C2D8E0D9F1D8A159B05E4F46CE0912F802F0E940A02CE31D105B1
:200C00008CF0E2EEEE2EEFEFFE2EEC0EFD1E085610408DE290E0C80ED91E9D2D8C2D0E94CE
:200C2000010350C00C5C1F4F4DC00B9B1EC08C2F9D2F8C0D9D1D0F97C4F06CE0912F802F4A
:200C40000E940A02CF30D10564F46E9608591F4F83ED9FEFC80ED91E9D2D8C2D0E940103F2
:200C600064C02F970453104060C00C9B33C0EC2EFD2E0894E11CF11C9D2D8C2D8E0D9F1D64
:200C80008A159B053CF56CE0912F802F0E940A02CD31D10529F0CC32D10529F02E9781F467
:200CA0000C5818400FC08DE290E0C80ED91E9D2D8C2D0E94010302E416E8EE24FF2402C0F9
:200CC00000561F4F6CE0912F802F0E94FF01DF2DCE2D7DCF0D9B2FC08C2F9D2F8C0D9D1D2F
:200CE0001816190644F56CE0912F802F0E940A02CF30D10531F0CE31D10519F0209729F061
:200D000011C021970457174F10C083ED9FEFC80ED91E9D2D8C2D0E9401030AE61FE8CCE220
:200D2000D0E003C02197005A10406CE0912F802F0E94FF014CCF099B18C068E185E00E949A
:200D400031018C2F9D2F8C0D9D1D6DE070E00E943218B92DA82DF92FE82FE050F04A8DE02D
:200D600001900D928150E1F703C0119B2ECF83E6992704C0119BFECF83E690E0DF91CF911F
:200D80001F910F91FF90EF90DF90CF90BF90AF909F908F900895AF92BF92CF92DF92EF92C9
:200DA000FF920F931F93CF93DF93CDB7DEB7A7970FB6F894DEBF0FBECDBFE6ECF2E0F093B5
:200DC000540BE093530B8EE192E011920197E9F784E088B9E2E0F0E881E7808334962FE85C
:200DE000E23AF207D1F70E94FE16109200061092010685E088B904E020E030E840E050E11C
:200E000060E070E584E090E00E94D20120E030EC40E054E060E070E584E090E00E94D201A6
:200E200020E030EE40E054E060E078E584E090E00E94D20182E088B901E020E030E840E09E
:200E400050E160E070E684E090E00E94D20183E088B920E038EE40E058E160E070E784E064
:200E600090E00E94D20180E888B980B97894109B55C280EC80B90699FECF0E94A0010E94E7
:200E80001D0183E391E00E941502882309F4CEC0813009F03EC20E941D0184E491E00E9489
:200EA0001502882321F0813009F0BBC091C045E06DE086E990E00E94600146E06DE189E5B3
:200EC00091E00E948702182F68E185E00E94310145E06DE081E692E00E946001812F9927EF
:200EE0006DE170E00E94321849E5E42E41E0F42EE80EF91E47E066E09F2D8E2D0E946001E1
:200F000033E0C32ED12CCC0EDD1E9D2D8C2D0E946C058336910509F4FCC145E06DE087E97A
:200F200092E00E94600147E066E09F2D8E2D0E946001123051F1133030F4112361F0113094
:200F400009F0E7C114C01430A1F1143030F1153009F0DFC130C0EE241D2D0C2D20E030E16D
:200F600040E050E060E070E680E090E00BC0EE241D2D0C2D20E038E140E050E060E070E75B
:200F800080E090E00E945404C4C1EE241D2D0C2D20E038E040E050E0F1CFEE241D2D0C2DB0
:200FA00020E030E140E050E060E078E780E090E0E9CFEE2402C021E0E22E1D2D0C2D20E041
:200FC00030E140E050E060E070E580E090E0DACF45E06DE081E692E00E94600147E060E1EC
:200FE0008DE892E00E9460010C2F1D2F0D5F1F4F912F802F0E946C058336910509F489C18E
:2010000045E06DE087E992E00E94600147E060E18DE892E00E946001912F802F0E94C20351
:2010200078C10E94B90180E880B973C145E06EE086EA90E00E94600145E062E187E092E0AF
:201040000E948702182F833609F463C1C82EDD24823380F19D2D8C2D62E170E00E94321825
:20106000F92FE82FE857F140A4EBB0E08CE00D9001928150E1F7812F8453823008F049C122
:201080001170212F3327022F132F00501A4FF12FE02F80818F3F51F4932F822F68E170E0AA
:2010A0000E9432188D5D944F0E942511F12FE02F10822FC168E185E00E94310145E06DE0FA
:2010C00081E692E00E9460019D2D8C2D62E170E00E943218E82EF92E47E06CE0895F9D4FAE
:2010E0000E94600193E0C92ED12CCC0EDD1E9D2D8C2D0E946C058336910509F40AC141E0E3
:201100007D2D6C2D8C2F9D2F40960E941C15882371F04CE06CE081E792E00E94600181B1C9
:201120008823E9F781B1882309F0F3C0FBCF812F8150843058F4FF2DEE2DE45FFD4FBD2D90
:20114000AC2D8CE00D9001928150E1F7143048F4123008F06FC0112341F0113009F0D6C053
:20116000D0C0143009F0D2C0CCC02C2F3D2F2F5F3F4F40E850E060E070E28C2F9D2F40965A
:201180000E94A51218B8A0EFB0E9E0E0F0E280E201900D928150E1F783EC80930591609128
:2011A000142070911520409112205091132077FD35C018B8062F172F040F151F80E1E82E3C
:2011C000F12CEC0EFD1ECC2EDD2E0894C11CD11C972F862F80509048F0E801301F0728F404
:2011E0003D2D2C2D682F792F16C040E050E8461B570B3D2D2C2D682F792F9F2D8E2D0E94D1
:20120000A51281E088B9005010483D2D2C2D512F402F60E070E89F2D8E2D09C081E088B991
:201220002C2F3D2F2F5F3F4F8C2F9D2F40960E94A51267C01170C12EDD24B0E0AB2EB6E07E
:20124000BB2EAC0CBD1CFB2DEA2D80818F3F51F49D2D8C2D68E170E00E9432188D5D944FEC
:201260000E9425110C2F1D2F005F1F4F4AE150E060E070E0912F802F0E94230D7D2D6C2DD3
:2012800062507A4FEC2EFD2E0894E11CF11C3F2D2E2D41E050E0912F802F0E94A51240E2E6
:2012A00050E060E070E0912F802F0E94230D9D2D8C2D60E972E00E9432188E5F994F3F2DE2
:2012C0002E2D40E952E0682F792F912F802F0E94A512912F802F0E9425119D2D8C2D68E13E
:2012E00070E00E94321841E06C2F7D2F6D5F7F4F8D5D944F0E941C158FEFFB2DEA2D808350
:2013000005C08C2F9D2F40960E94251181B18823E9F70E94B90180E880B9A9CD129BA7CD82
:2013200041E06EE172E08C2F9D2F40960E941C15882309F0B6C081E08EB92C2F3D2F2F5FA4
:201340003F4F40E850E060E078E78C2F9D2F40960E94A51289819A81892B09F4A2C00E9478
:20136000A70097FD9EC00E94A70097FD9AC00E94D60097FD96C00E94D60097FD92C00E943B
:20138000BF0097FD8EC00E94BF0097FD8AC061E070E080E80E948D0097FD83C0CC24DD247D
:2013A00000E018E761E070E080E80E948D0097FD78C068E070E0F12FE02F80810E948D0063
:2013C00087FD6FC0992787FD9095C80ED91EF8E70F371F0719F00F5F1F4FE4CF9D2D8C2DBE
:2013E0000E94ED0097FD5DC00E94A70097FD59C00E94D60097FD55C00E94BF0097FD51C090
:2014000061E070E080E80E948D0097FD4AC00091127810911378AA24BB240038110518F4B8
:20142000512F402F02C040E850E02C2F3D2F2F5F3F4F60E078E78C2F9D2F40960E94A5126B
:20144000CC24DD2418C061E070E080E80E948D0097FD27C068E070E0FF2DEE2D80810E949E
:201460008D0087FD1EC0992787FD9095A80EB91E0894C11CD11CE12CA8E7FA2EEC0CFD1C4C
:2014800089819A81C816D906F0F20138110518F000581040C2CF9B2D8A2D0E94ED0097FF54
:2014A0004CCF8C2F9D2F40960E9425111EB8DFCC1F920F920FB60F9211240F931F932F9358
:2014C0003F934F935F936F937F938F939F93AF93BF93EF93FF93CF93DF93CDB7DEB72297B0
:2014E000DEBFCDBF8091FC058D7F8093FC0580BB9091220B9F5F9093220BE92FFF27E65046
:20150000FB4F808184BB963049F48091FD058C3009F071C085E08093220B6CC09F3F09F09D
:201520006AC08091FD05893009F062C0A091C502AF5FA093C502A2BB23B322952F70217080
:2015400043B33327932F822F68E170E00E943218082F192F0D5D144FF32FE22FE650FA4F45
:20156000E0814170932F822F64EA70E00E9432188E0F911DF92FE82FE40FF11DEE0FFF1FB6
:20158000EE0FFF1FEE5FF94F8A2F992760E171E00E943218AA2797FDA095BA2F4096A11D8D
:2015A000B11D2081318142815381820F931FA41FB51F482F592F6A2F7B2F912F802F0E9446
:2015C000230D2C2F3D2F2F5F3F4F40E051E06AEF74E0912F802F0E94A5128091FA0484BBE4
:2015E0001092220B8091FC0582608093FC0503C0883009F415BA8091FC0580BB2296F8943C
:20160000DEBFCDBFDF91CF91FF91EF91BF91AF919F918F917F916F915F914F913F912F9171
:201620001F910F910F900FBE0F901F901895CF93DF93C091530BD091540B682F792F6250BF
:2016400070408E859F856817790728F020E030E040E050E014C0882799272A813327442779
:2016600055270E944418262F372F482F592F888D998DAA8DBB8D280F391F4A1F5B1F952F46
:20168000842F732F622FDF91CF9108956F927F929F92AF92BF92CF92DF92EF92FF920F939C
:2016A0001F93CF93DF93A62EB72EC82ED92EC091530BD091540BE884F9840A851B85E6166B
:2016C000F7060807190709F458C08E818823E1F18EE1682E712C6C0E7D1E21E0712F602F56
:2016E0005F2D4E2D972D862D0E949F17882309F041C01E828C859D85AA27BB272889398976
:201700004A895B89820F931FA41FB51FE816F9060A071B07C8F49B8014C08C859D85AA2759
:20172000BB27E80EF91E0A1F1B1F21E0712F602F5F2D4E2D972D862D0E949F17882321F491
:201740009A9481E0891548F3A114B104C104D104A1F021E07D2D6C2D5B2D4A2D8C2F9D2FC2
:201760004E960E943F17882329F4A886B986CA86DB8603C080E090E002C081E090E0DF9111
:20178000CF911F910F91FF90EF90DF90CF90BF90AF909F907F906F9008955F926F927F9252
:2017A0008F929F92AF92BF92CF92DF92EF92FF920F931F93CF93DF93D92FC82FC62ED72E41
:2017C0008090530B9090540BF92DE82DE088F188028913898081813009F064C08C2F9D2F83
:2017E00063E070E00E943218A82EB92EB694A7947B2D6A2D672F77276695882799276E0DD0
:201800007F1D801F911F0E94460B882309F468C06EE1662E712C680C791CFB2DEA2DF170F1
:20182000E60DF71D8C2F9D2F81709070582E882339F080818F709C2D9295907F982B01C04C
:201840009C2D9083DB2DCA2D219681E0F92DE82D86838C2F9D2F892F99278695AA27BB2784
:20186000E80EF91E0A1F1B1F912F802F7F2D6E2D0E94460B8823A1F1FD2FEC2FF170E60D77
:20188000F71D552039F044E0D694C7944A95E1F72C2D06C02081207F8D2D99278F70282BCB
:2018A000208317C08D2F9927AA27BB27E80EF91E0A1F1B1F912F802F7F2D6E2D0E94460B66
:2018C000882371F0CC0FDD1FD170C80DD91DDF8ECE8E81E0F92DE82D868381E090E002C018
:2018E00080E090E0DF91CF911F910F91FF90EF90DF90CF90BF90AF909F908F907F906F9032
:201900005F9008959F92AF92BF92CF92DF92EF92FF920F931F93CF93DF93C82ED92EA0903F
:20192000530BB090540B82E0C816D10408F47DC0FB2DEA2D86859785C816D90608F075C00C
:20194000E088F188028913898081813021F0823009F06BC04DC09D2D8C2D63E070E00E9421
:201960003218D92FC82FD695C7956C2F7D2F672F77276695882799276E0D7F1D801F911F0C
:201980000E94460B882309F450C0FD2FEC2FF170EA0DFB1D968C21968C2F9D2F892F99270D
:2019A0008695AA27BB27E80EF91E0A1F1B1F912F802F7F2D6E2D0E94460B8823B1F1292D9D
:2019C0003327D170CA0DDB1D8E8D9927982F8827282B392BC0FE08C0932F822F14E096957D
:2019E00087951A95E1F723C0932F822F9F701FC08D2D9927AA27BB27E80EF91E0A1F1B1F63
:201A0000912F802F7F2D6E2D0E94460B882369F0CC0CDD1C8FEF91E0C822D922AC0CBD1CE3
:201A2000FB2DEA2D868D978D02C081E090E0DF91CF911F910F91FF90EF90DF90CF90BF9052
:201A4000AF909F9008958F929F92AF92BF92CF92DF92EF92FF920F931F93CF93DF93D92F83
:201A6000C82FE42EF52E062F172F8090530B9090540B8114910419F48AE090E08DC00E94D2
:201A80003B1780FD87C0F92DE82D8081882309F481C08E8988230CF47AC02C813D814E81D5
:201AA0005F81E216F3060407150720F4512F402F3F2D2E2D288339834A835B8381E08F8BD7
:201AC000211531054105510509F45BC0215030404040504069E056954795379527956A955E
:201AE000D1F7F92DE82DA281822F6A2F0E945F188A2F891B8F8BAA2EBB24CC24DD24952F7A
:201B0000842F732F622F5D2D4C2D3B2D2A2D0E946B18E22EF32E042F152F2885398506C01F
:201B2000932F822F0E94820C282F392F0894E108F10801091109FFEFEF16FFEFFF06FFEFCD
:201B40000F07FFEF1F0761F722303105E8F0F92DE82D8685978528173907B0F43B872A87AB
:201B6000932F822F0E94170B6A0D7B1D8C1D9D1D2F89621B7109810991096C877D878E87DD
:201B80009F8780E090E008C08E8980688E8B87E090E002C081E090E0DF91CF911F910F91E5
:201BA000FF90EF90DF90CF90BF90AF909F908F900895EF92FF920F931F93CF93DF93D92F8E
:201BC000C82FE090530BF090540B088519850F5F1F4F912F802F8F709070892B09F042C03D
:201BE0008C819D81AE81BF810196A11DB11D8C839D83AE83BF834A815B814115510541F4FE
:201C0000FF2DEE2D848195810817190758F12FC0312F202F74E0369527957A95E1F7FF2D4E
:201C2000EE2D82819927019728233923232BD1F4952F842F0E94820C282F392FFF2DEE2DC7
:201C4000868597852817390790F42230310578F03B832A83932F822F0E94170B6C837D83D9
:201C60008E839F831987088781E090E002C080E090E0DF91CF911F910F91FF90EF900895D4
:201C8000CF92DF92EF92FF920F931F93CF93DF93C82ED92E062F172FE090530BF090540B13
:201CA000E114F10419F48AE090E091C0D72FC62F19860E943B1780FD82C0FF2DEE2D80816D
:201CC000882309F06FC07BC00E94460B882309F479C08EE190E0E80EF91EDD2DCC2DE885C6
:201CE000F985EF70F070A5E0EE0FFF1FAA95E1F7EE0DFF1D82EE9FEFE80EF91E8081882322
:201D000009F463C0853EE9F18E32D9F1838583FD38C0B12FA02F1996CE2FDF2F2E2F3F2FC8
:201D2000285F3F4F8991803239F0853009F485EE8D93C217D307B1F78085803269F08EE279
:201D40008D93CE2FDF2F98E08885803229F08D939F5F21969B30C1F71C928385D12FC02F0B
:201D60008887848D958DA68DB78D88839983AA83BB83808D918D9D838C83868997899F836D
:201D80008E839D2D8C2D0E94D90D882331F4FD2DEC2D1482158216821782D12FC02F8985B9
:201DA000882399F4FD2DEC2D6481758186819781611571058105910509F086CF06C081E031
:201DC00090E005C087E090E002C080E090E0DF91CF911F910F91FF90EF90DF90CF900895CC
:201DE000AF92BF92CF92DF92EF92FF920F931F93CF93DF93E82EF92EA090530BB090540BDB
:201E0000FB2DEA2DC684D784009749F4048D158D0230110590F00C151D0578F410C00E94EE
:201E2000820C82309105E0F18C159D0518F4682F792F38C01F2D0E2D02C001E010E0D12F5B
:201E4000C02F2196CC15DD0528F00130110541F1C2E0D0E0C017D10719F18C2F9D2F0E9454
:201E6000820C81309105E1F0892B59F76FEF7FEF8C2F9D2F0E94CD0B882391F0E114F104D5
:201E800041F06C2F7D2F9F2D8E2D0E94CD0B882339F0FB2DEA2DD58FC48F6C2F7D2F02C0F6
:201EA00060E070E0972F862FDF91CF911F910F91FF90EF90DF90CF90BF90AF9008954F920F
:201EC0005F926F927F928F929F92AF92BF92DF92EF92FF920F931F93CF93DF93E82EF92E33
:201EE000662E772E842E952E422E532EA090530BB090540BF92FE82F118210821382128289
:201F0000FB2DEA2D84899589A689B789FF2DEE2D84839583A683B7831186108603C0089493
:201F2000811C911CF92DE82D80818032C1F38F32B1F3803228F4F52DE42D11821082C8C0A2
:201F40004BE050E060E270E0972D862D0E94271830E048E020E058E102C038E04BE0F92DA0
:201F6000E82D91918E2E9F2E913210F490E002C09F3269F4332309F49EC02523F72DE62D4A
:201F80002387D92EF1E09F1709F041C094C09E3241F420FD90C0332309F48DC03930E8F266
:201FA0008AC09F3748F5923209F485C09A3220F19D3208F480C09A33F8F0903408F47BC026
:201FC00020FD1AC09C3709F476C0892F8B55833008F471C0865E8A3128F4483011F4577F7E
:201FE00001C05F7E892F81568A3130F49052483011F4286001C02061341708F05CC02E7FA0
:20200000F72DE62DE30FF11D90833F5FA8CFFF2DEE2D64817581868197810E94460B882382
:2020200009F44FC08EE190E0A80EB91EFF2DEE2DC085D185CF70D070B5E0CC0FDD1FBA950C
:20204000E1F7CA0DDB1D82EE9FEFA80EB91E88818823B9F0853E79F08B85082F112703FD46
:202060000AC04BE050E0772D662D8C2F9D2F0E940918892B49F09F2D8E2D0E94D90D882313
:2020800031F6DD2041F11AC0DD20F1F004FF16C08A8D9B8DFF2DEE2D9183808393838283A1
:2020A0000E94170BFF2DEE2D64837583868397831186108645CF84E090E00FC083E090E05C
:2020C0000CC087E090E009C0F52DE42DD183C08380E090E002C082E090E0DF91CF911F91E6
:2020E0000F91FF90EF90DF90BF90AF909F908F907F906F905F904F9008950F931F93CF93B8
:20210000DF93462F572F682F792FC091530BD091540B0C2F1D2F025E1F4F80E092E0F12F5D
:20212000E02F11920197E9F721E0912F802F0E943F17882321F5C45EDD4F88819981855501
:202140009A4AE9F4D12FC02FE69645E050E06EEA72E08C2F9D2F0E940918892B19F481E0E8
:2021600090E00FC045E050E063EB72E08C2F9D2F0E940918892B19F482E090E002C080E02C
:2021800090E0DF91CF911F910F910895EF92FF920F931F93CF93DF93D92FC82FE090530B0B
:2021A000F090540BE114F10419F48AE090E046C00E943B1780FD3DC0FF2DEE2D8081882308
:2021C000C1F18E8985FF2AC0688979898A899B890E94460B882381F10C891D89F12FE02F24
:2021E0008385806283878C819D81AE81BF81848F958FA68FB78F88859985938F828F0E949F
:202200000418F12FE02F668B778B808F918F81E0FF2DEE2D86838E898F7D8E8B60E070E0D4
:2022200080E090E00E94460B882331F080E090E005C088E090E002C087E090E0DF91CF9139
:202240001F910F91FF90EF900895CF93DF93D92FC82F0E94C610982F882341F41E8AE09178
:20226000530BF091540B818181508183892F9927DF91CF9108958F929F92AF92BF92CF921F
:20228000DF92EF92FF920F931F93CF93DF93D92FC82F062F172FE42EF52E822E932EC09023
:2022A000530BD090540BF32FE22F11821082C114D10419F48AE090E03BC10E943B1780FDAB
:2022C00035C1FD2DEC2D8081882309F42FC18E8988230CF428C181FD03C085E090E028C182
:2022E0002C813D814E815F818E2D9F2DAA27BB27820F931FA41FB51F82179307A407B50716
:2023000010F4EE24FF24A02EB12EEFC0288139814A815B81B52FA42F932F822F9170A070E3
:20232000B0700097A105B10509F099C08F8981508F8B882349F04C855D856E857F854F5FF9
:202340005F4F6F4F7F4F33C0211531054105510571F4288539852115310579F480E090E0CF
:202360000E94F00E282F392F9987888706C08A859B850E94F00E282F392F2230310508F4F7
:20238000B8C0FD2DEC2D868597852817390708F0B0C03B872A87932F822F0E94170B462F55
:2023A000572F682F792FFD2DEC2D82818F8B4C875D876E877F879F2D8E2D892F992786952C
:2023C000882369F11F89811708F4182F212F9B2D8A2D0E949F17882309F0A2C08F89811B94
:2023E0008F5F8F8B812F99270197282F392F442737FD4095542F082F192F0F5F1F4F8C85AB
:202400009D85AE85BF85820F931FA41FB51F8C879D87AE87BF87102F0027110F4AC028815E
:2024200039814A815B818C819D81AE81BF81281739074A075B0798F060E070E080E090E087
:202440000E94460B882309F46BC08C859D85AE85BF85FD2DEC2D80879187A287B3876C8556
:202460007D858E859F850E94460B882309F458C088819981AA81BB81282F392F317080E026
:2024800092E0821B930B1F2D0E2D8E159F0510F4082F192F9D2D8C2D4E96512F402F7B2D40
:2024A0006A2D820F931F0E94181881E0FD2DEC2D8683A00EB11E802F912FAA27BB2728817B
:2024C00039814A815B81280F391F4A1F5B1F288339834A835B83F92DE82D80819181800F3A
:2024E000911F91838083E01AF10AE114F10409F00DCF288139814A815B818C819D81AE81FD
:20250000BF8182179307A407B50720F42C833D834E835F838E8980628E8B80E090E008C001
:202520008E8980688E8B87E090E002C081E090E0DF91CF911F910F91FF90EF90DF90CF901D
:20254000BF90AF909F908F9008956F927F928F929F92AF92BF92CF92DF92FF920F931F9355
:20256000CF93DF93082F192FD72FC62FC42ED52E622E732E8090530B9090540BF32FE22FC7
:20258000118210828114910419F48AE090E014C10E943B1780FD0EC1F92DE82D8081882309
:2025A00009F408C1F12FE02F868988230CF4FFC080FD03C085E090E0FFC0F12FE02F248105
:2025C00035814681578180819181A281B381281B390B4A0B5B0B8C2D9D2DAA27BB27281785
:2025E00039074A075B0710F4C22ED32EAC2EBD2ED2C0F12FE02F2081318142815381B52F9F
:20260000A42F932F822F9170A070B0700097A105B10509F079C087898150878B882349F047
:2026200044855585668577854F5F5F4F6F4F7F4F30C0211531054105510529F4F12FE02FE4
:202640002085318508C0F12FE02F828593850E94820C282F392F2230310508F4A3C0F92D0D
:20266000E82D868597852817390708F09BC0F12FE02F33872287932F822F0E94170B462F0E
:20268000572F682F792FF92DE82D8281F12FE02F878BF12FE02F44875587668777879D2D6B
:2026A0008C2D892F99278695882371F1F7888F1508F4F82E2F2D9B2D8A2D0E943F178823FE
:2026C00009F070C0F12FE02F87898F198F5F878B8F2D99270197282F392F442737FD4095A3
:2026E000542FD92FC82F219684859585A685B785820F931FA41FB51F84879587A687B787AB
:20270000DC2FCC27DD0F29C0F12FE02F64857585868597850E94460B882309F443C0F12FEF
:20272000E02F80819181A281B381917020E032E0281B390BDD2DCC2D2C153D0510F4D32FFA
:20274000C22F792D682D625E7F4F680F791F4C2F5D2F9B2D8A2D0E941818AC0EBD1E8C2F08
:202760009D2FAA27BB27F12FE02F2081318142815381280F391F4A1F5B1F20833183428333
:202780005383F72DE62D808191818C0F9D1F91838083CC1ADD0AC114D10409F02ACF80E0E2
:2027A00090E00AC0F12FE02F86898068868B87E090E002C081E090E0DF91CF911F910F911E
:2027C000FF90DF90CF90BF90AF909F908F907F906F9008956F927F929F92AF92BF92CF92DF
:2027E000DF92EF92FF920F931F93CF93DF93C091530BD091540B209719F48AE090E09BC0C6
:202800008EE192E0FD2FEC2F11920197E9F70E94FE1680FF03C081E090E08DC060E070E0CF
:2028200080E090E00E947D10882329F0AA24BB24CC24DD2419C0C052DE4F8881C05ED140E7
:20284000882309F476C0CC51DE4FA880B980CA80DB80C45ED1409D2D8C2D7B2D6A2D0E94B3
:202860007D10882309F465C088830EE1E02EF12CEC0EFD1EFF2DEE2D668977897D876C8797
:202880009BA49A828EA58B8306851785222733270A0D1B1D2C1D3D1D088B198B2A8B3B8B2E
:2028A000618872887D826C8299270E943218AA27BB27800F911FA21FB31F8C8B9D8BAE8B9F
:2028C000BF8B14E0769467941A95E1F7262D372D44275527280F391F4A1F5B1F288F398F9F
:2028E0004A8F5B8F60A171A182A193A1611571058105910541F483899489F92FE82F6E2F69
:202900007F2F88279927621B730B840B950B6A0D7B1D8C1D9D1D292D3327442755270E94C5
:202920006B182E5F3F4F3F872E87198280E090E002C08BE090E0DF91CF911F910F91FF90C7
:20294000EF90DF90CF90BF90AF909F907F906F900895CF93DF93C091530BD091540B2097C8
:2029600019F48AE090E013C00E943B1780FF06C08981882349F088E090E009C08881882321
:2029800019F080E090E003C00E94EA139927DF91CF910895EF92FF920F931F93CF93DF9395
:2029A000CDB7DEB72E970FB6F894DEBF0FBECDBF082F192FE62EF72E0E94A914882311F02F
:2029C00099272DC02C2F3D2F2F5F3F4F5F2D4E2D6C2F7D2F6D5F7F4F912F802F0E945F0F00
:2029E000F82E8823D1F4E981FA813097B1F0838584FD03C082E0F82E10C0828D938DF12F01
:202A0000E02F938382830E94170BF12FE02F6483758386839783118610868F2D99272E962A
:202A20000FB6F894DEBF0FBECDBFDF91CF911F910F91FF90EF9008952F923F925F926F9200
:202A40007F928F929F92AF92BF92CF92DF92EF92FF920F931F93CF93DF93CDB7DEB768975D
:202A60000FB6F894DEBF0FBECDBF682E792EE62EF72E542E2090530B3090540B0E94A9148B
:202A8000882311F0992781C1052D1127912F802F8A719070892B39F00E943B1782FF03C09F
:202AA00089E090E072C12C2F3D2F2F5F3F4F5F2D4E2D6C2F7D2F635F7F4F8C2F9D2F039629
:202AC0000E945F0F282F912F802F88719070892B09F4FFC0222309F4AFC0223009F0FBC000
:202AE0008090530B9090540B0B811C810115110559F01E830D83912F802F0E94170B6F83F5
:202B0000788789879A870AC0F92DE82D84899589A689B7898F839887A987BA871C861B8601
:202B20006F81788589859A850E94460B882309F419C12EE1A22EB12CA80CB91CEB85FC85D0
:202B4000EF70F07095E0EE0FFF1F9A95E1F7EA0DFB1D8081882309F452C0853E09F44FC086
:202B60008C2F9D2F03960E94D90D8823C9F6012B09F4F8C08D819E810E94F00E082F192F16
:202B8000892B09F4EFC060E070E080E090E00E94460B882309F4E6C0912F802F0E94170B01
:202BA000E62EF72E082F192FF92DE82D608771878287938780E092E0FB2DEA2D11920197D4
:202BC000E9F7F92DE82DD28012C021E0712F602F5F2D4E2D9B2D8A2D0E949F17882309F004
:202BE000C1C00894E11CF11C011D111DDA94DD2061F781E0F92DE82D8683FB2DEA2D3097F4
:202C000009F4B0C088E0582AFA83E983AC2FBD2F1D968BE00D9001928150E1F7E981FA81D1
:202C2000888D8487E981FA813D9683E111928A95E9F753FC39C05FC0A981BA81109709F446
:202C400091C0FB2FEA2F8385817109F08BC003FF52C0F32DE22DA084B184C284D384FB2F3F
:202C6000EA2F028D138D0115110509F484C00BC060E070E0912F802F0E94CD0B882309F4B3
:202C800074C01F2D0E2D912F802F0E94820CE82EF92E029768F76FC0E981FA81138E128E50
:202CA000148E158E168E178EE981FA8180E283870E940418E981FA8166877787808B918B80
:202CC000668B778B808F918F81E0F32DE22D868312C0222319F0822F992757C0E981FA81AC
:202CE000309709F445C08385992784FD41C001FF02C080FD37C0F3E05F22F72DE62D568A20
:202D0000F32DE22D80859185A285B385F72DE62D808B918BA28BB38BA981BA81B58BA48B6D
:202D2000FB2FEA2F828D938DF72DE62D91878087FB2FEA2F848D958DA68DB78DF72DE62DA7
:202D400084839583A683B783108211821282138281E0878BF32DE22D81818F5F818380E0AD
:202D600090E013C085E090E010C087E090E00DC082E090E00AC09D2D8C2D7B2D6A2D0E94C7
:202D8000460B882309F088CFF0CF68960FB6F894DEBF0FBECDBFDF91CF911F910F91FF9034
:202DA000EF90DF90CF90BF90AF909F908F907F906F905F903F902F900895805C8AB9872FED
:202DC0009927AA27BB278AB9972F862FAA27BB278AB9BB27A72F962F852F8AB919B819B8B6
:202DE00019B84AB919B819B819B885E98AB919B819B819B88AB119B819B8089581E089B94B
:202E000080E090E02FEF2AB901968F309105D9F719B840E050E060E070E080E00E94DD167F
:202E200020E030E08AB119B88F3F79F42F5F3F4F20313105B9F781E089B983E08093550B6F
:202E400083E090E008958AB119B88130E1F740E050E060E070E081E00E94DD168AB119B88B
:202E60008F3FE1F3882399F781E089B91092550B80E090E008958091550B99270895CF9234
:202E8000DF92EF92FF920F931F93CF93DF93D92FC82FC22E8091550B882319F083E090E0A0
:202EA00045C019B8DD24E42EF52E062F172F39E0EE0CFF1C001F111F3A95D1F72EC0712FE9
:202EC000602F5F2D4E2D81E10E94DD168AB119B88F3FE1F3882341F58AB119B88F3FE1F328
:202EE00087FF22C0FD2FEC2F20E030E08AB181932F5F3F4F82E020303807C1F7C050DE4FC2
:202F000080E092E0A0E0B0E0E80EF91E0A1F1B1F8AB119B819B88AB1D394DC1481F681E018
:202F200089B980E090E002C081E090E0DF91CF911F910F91FF90EF90DF90CF900895CF92F2
:202F4000DF92EF92FF920F931F93CF93DF93D92FC82FC22E8091550B882319F083E090E0DF
:202F60004AC019B8DD24E42EF52E062F172F49E0EE0CFF1C001F111F4A95D1F733C0712FFE
:202F8000602F5F2D4E2D88E10E94DD168AB119B88F3FE1F3882369F58FEF8AB919B819B883
:202FA0008EEF8AB9FD2FEC2F20E030E081918AB92F5F3F4F82E020303807C1F7C050DE4FA3
:202FC0008FEF8AB903C08F718C3099F08AB18F3FD1F780E092E0A0E0B0E0E80EF91E0A1F3F
:202FE0001B1FD394DC1459F681E089B980E090E002C081E090E0DF91CF911F910F91FF903C
:20300000EF90DF90CF90089560E070E081E296E30895E62FF72FA82FB92F04C08D91019050
:20302000801921F441505040C8F7881B990B0895E62FF72FA82FB92F40FF05C002C00190CD
:203040000D9201900D9242505040C8F70895A82FB92F40FF03C001C06D936D93425050407F
:20306000D8F708955527002480FF02C0060E571F660F771F6115710521F096958795009793
:2030800099F7952F802D0895FF27EE27BB27AA2760FF04C0A20FB31FE41FF51F220F331F64
:2030A000441F551F969587957795679589F70097760771F79F2F8E2F7B2F6A2F0895991BCF
:2030C00079E004C0991F961708F0961B881F7A95C9F780950895A1E21A2EAA1BBB1BEA2F1E
:2030E000FB2F0DC0AA1FBB1FEE1FFF1FA217B307E407F50720F0A21BB30BE40BF50B661FB2
:20310000771F881F991F1A9469F76095709580959095262F372F482F592F6A2F7B2F8E2FBE
:203120009F2F08952F0046494C45204E4F5420464F554E442E004452495645204E4F54204F
:2031400052454144592E0052454144204552524F522E004552524F522E0053454C45435460
:2031600020524F4D20415245410053454C4543542044455649434500284E4F4E45292020B7
:203180002020202000006162636465666768696B6A2F2A2E2D202122232425262728294FDD
:2031A0002C512B5749550102030405060708090A0B0C0D0E0F101112131415161718191A13
:2031C000525954CE3C0080A0804081E08180822083C08360840085A0854086E0868087205B
:2031E00088C0886089008AA08A408BE08B808C208DC08D608E008F0446494C450853455491
:20320000555009455849540004524F4D08504C444C4F414406504C4453415645004D4F4ECD
:2032200049544F5220524F4D20202020202028303030302D304646462900535542204D4F9C
:203240004E49544F5220524F4D202028453830302D464646462900514420424F4F542F4DBC
:203260004F4E2E20524F4D2028453830302D454646462900464420424F4F5420524F4D20D7
:20328000202020202028463030302D464646462900434720524F4D0000000000000000008A
:2032A0000000000000000000000000000000434720524F4D202852455645525345290000E9
:2032C0000000000000000000000000202020444952454354204C4F41440000000024434DDF
:2032E000543A284E4F4E452920202020202000244644313A284E4F4E4529202020202020A5
:2033000000244644323A284E4F4E452920202020202000245144203A284E4F4E452920207E
:20332000202020200053454C4543542046494C4520464F520046494C45204F50454E20452F
:2033400052524F522E00574149542E2E2E2E2E2E0046504741204441544100204E4F572025
:203360005550444154494E4720200000061218243036464154313246415431360000FFFF79
:20338000FFFFFFFFFFFFFFFFFFFFFFFFFFFFFFFFFFFFFFFFFFFFFFFFFFFFFFFFFFFFFFFF4D
:2033A000FFFFFFFFFFFFFFFFFFFFFFFFFFFFFFFFFFFFFFFFFFFFFFFFFFFFFFFFFFFFFFFF2D
:2033C000FFFFFFFFFFFFFFFFFFFFFFFFFFFFFFFFFFFFFFFFFFFFFFFFFFFFFFFFFFFFFFFF0D
:2033E000FFFFFFFFFFFFFFFFFFFFFFFFFFFFFFFFFFFFFFFFFFFFFFFFFFFFFFFFFFFFFFFFED
:2050000000000000000000001824427E424242007C22223C22227C001C22404040221C00D6
:2050200078242222222478007E40407840407E007E404078404040001C22404E42221C00DC
:205040004242427E424242001C08080808081C000E04040404443800424448704844420040
:205060004040404040407E0042665A5A424242004262524A464242001824424242241800C8
:205080007C42427C40404000182442424A241A007C42427C484442003C42403C02423C00C8
:2050A0003E080808080808004242424242423C0042424224241818004242425A5A6642005A
:2050C00042422418244242002222221C080808007E02041820407E0008080808FF0808081D
:2050E000080808080F00000008080808F8000000080808080F08080808080808FF00000003
:205100003C42465A62423C000818280808083E003C42020C30407E003C42023C02423C003D
:20512000040C14247E0404007E407804024438001C20407C42423C007E4204081010100035
:205140003C42423C42423C003C42423E020438000000007E0000000000007E007E000000DD
:20516000000008000008081000020408102040000000000000181800000000000008081039
:2051800000FF000000000000404040404040404080808080808080FF01010101010101FF8B
:2051A000000000FF000000001010101010101010FFFF000000000000C0C0C0C0C0C0C0C072
:2051C0000000000000FF0000040404040404040400000000FFFFFFFF0F0F0F0F0F0F0F0F3C
:2051E00000000000000000FF0101010101010101000000000000FFFF030303030303030392
:2052000000000804FE040800081C3E7F7F1C3E00FF7F3F1F0F070301FFFFFFFFFFFFFFFFD0
:20522000081C3E7F3E1C0800000010207F201000081C2A7F2A080800003C7E7E7E7E3C00D5
:20524000003C424242423C003C42020C10001000FFC381818181C3FF000000000304080883
:2052600000000000C020101080C0E0F0F8FCFEFF0103070F1F3F7FFF000008000008000027
:2052800000081C2A080808000E18306030180E003C20202020203C00367F7F7F3E1C08006F
:2052A0003C04040404043C001C224A564C201E00FFFEFCF8F0E0C08070180C060C187000CB
:2052C000A050A050A050A0500040201008040200AA55AA55AA55AA55F0F0F0F00F0F0F0F98
:2052E000000000000F08080800000000F808080808080808F808080800000000FF08080830
:205300000000013E541414000808080800000800242424000000000024247E247E2424008E
:20532000081E281C0A3C08000062640810264600304848304A443A00040810000000000097
:20534000040810101008040020100808081020000008083E08080000082A1C3E1C2A080055
:205360000F0F0F0FF0F0F0F08142241818244281101020C00000000008080403000000001C
:20538000FF000000000000008080808080808080FF80808080808080FF0101010101010189
:2053A0000000FF0000000000202020202020202001020408102040808040201008040201F0
:2053C00000000000FF0000000808080808080808FFFFFFFF00000000F0F0F0F0F0F0F0F012
:2053E000000000000000FF0002020202020202020000000000FFFFFF070707070707070769
:20540000000808082A1C08000438083E08081000003E020202023E0000222212020418008C
:20542000003002320204380002040818280808000008042222222200083E083E0808080034
:20544000001E122202041800001C000000003E00003E0202140804000404040404081000F4
:205460002424242404081000003E103E10100E00001C001C003C02001C003E0202040800E6
:20548000103E121410100E00001E122A06041800003E0204081422001010101814101000F0
:2054A000103E12121212240008083E080810200020203E2020201E001C003E080808100026
:2054C000143E1414040810000030000202043800002A2A2A02040800003E222222223E0036
:2054E000101E2404040408001E1010100000000000003E020C0810000000103E1214100010
:20550000003E222202040800003E021408142000003E0202020418003E020A0C0808100095
:20552000083E222202040800003E080808083E00043E040C1424040010103E121410100005
:20554000001C040404043E00003E023E02023E00083E08082A2A080000102804020200002F
:2055600000202022242830000002021408142000000828282A2A2C00083E04081C2A080081
:2055800000081020223E0200000000080808780000000408182808000000001C04043E002B
:2055A000003E023E0204080000000000402010000000083E22020C0000003C043C043C00BD
:2055C000705070000000000000000000000020000000003E08083E000000002A2A020C008D
:2055E000104820000000000000000000705070000000043E0C1424000000001C0000000061
:205600001C1C3E1C08003E00FFF7F7F7D5E3F7FFFFF7E3D5F7F7F7FFFFFFF7FB81FBF7FF2C
:20562000FFFFEFDF81DFEFFFBBBBBB83BBBBBBFFE3DDBFBFBFDDE3FF18247EFF5A24000079
:20564000E047427E4247E000223E2A0808497F411C1C083E080814220011D2FCD2110000D1
:2056600000884B3F4B880000221408083E081C1C3C7EFFDBFFE77E3C3C4281A58199423C11
:205680003E22223E22223E003E223E223E224200082A2A081422410008093A0C1C2A4900A5
:2056A00008083E081C2A490008143E493E1C7F000008083E08087F0008487E483E087F00D1
:2056C000203E483C287E0800047E547F527F0A000814227F1212240038127F173B52140084
:2056E0007F49497F4141410022143E083E0808000C12103810103E0000C0C8545455220022
:20570000000000000002FF020202020202020702020202020202FF02000020508805020065
:20572000000E1122C404020100FF008142428100007088442320408000C4A4948F94A4C412
:2057400000232529F12925238890A0C0C0A898B8A8B0B8C0C0A09088804020101F2040800F
:2057600000002424E724240008083E00003E0808081020100804020455AA55AA55AA55AAC0
:2057800000000000000000000070707000000000000707070000000000777777000000003F
:2057A0000000000000707070007070700070707000070707007070700077777700707070DF
:2057C0000000000000070707007070700007070700070707000707070077777700070707AB
:2057E00000000000007777770070707000777777000707070077777700777777007777774B
:205800000000000000000000000038043C443A0040405C6242625C0000003C4240423C0018
:2058200002023A4642463A0000003C427E403C000C12107C1010100000003A46463A023C92
:2058400040405C62424242000800180808081C0004000C0404044438404044485068440050
:205860001808080808081C00000076494949490000005C624242420000003C4242423C0070
:2058800000005C62625C404000003A46463A020200005C624040400000003E403C027C0052
:2058A00010107C1010120C000000424242423C000000424242241800000041494949360076
:2058C000000044281028440000004242463A023C00007E0418207E0008080808FF0808082F
:2058E000080808080F00000008080808F8000000080808080F08080808080808FF000000FB
:205900003C42465A62423C000818280808083E003C42020C30407E003C42023C02423C0035
:20592000040C14247E0404007E407804024438001C20407C42423C007E420408101010002D
:205940003C42423C42423C003C42423E020438000000007E0000000000007E007E000000D5
:20596000000008000008081000020408102040000000000000181800000000000008081031
:2059800000FF000000000000404040404040404080808080808080FF01010101010101FF83
:2059A000000000FF000000001010101010101010FFFF000000000000C0C0C0C0C0C0C0C06A
:2059C0000000000000FF0000040404040404040400000000FFFFFFFF0F0F0F0F0F0F0F0F34
:2059E00000000000000000FF0101010101010101000000000000FFFF03030303030303038A
:205A000000000804FE040800081C3E7F7F1C3E00FF7F3F1F0F070301FFFFFFFFFFFFFFFFC8
:205A2000081C3E7F3E1C0800000010207F201000081C2A7F2A080800003C7E7E7E7E3C00CD
:205A4000003C424242423C003C42020C10001000FFC381818181C3FF00000000030408087B
:205A600000000000C020101080C0E0F0F8FCFEFF0103070F1F3F7FFF00000800000800001F
:205A800000081C2A080808000E18306030180E003C20202020203C00367F7F7F3E1C080067
:205AA0003C04040404043C001C224A564C201E00FFFEFCF8F0E0C08070180C060C187000C3
:205AC000A050A050A050A0500040201008040200AA55AA55AA55AA55F0F0F0F00F0F0F0F90
:205AE000000000000F08080800000000F808080808080808F808080800000000FF08080828
:205B00000000013E541414000808080800000800242424000000000024247E247E24240086
:205B2000081E281C0A3C08000062640810264600304848304A443A0004081000000000008F
:205B4000040810101008040020100808081020000008083E08080000082A1C3E1C2A08004D
:205B60000F0F0F0FF0F0F0F08142241818244281101020C000000000080804030000000014
:205B8000FF000000000000008080808080808080FF80808080808080FF0101010101010181
:205BA0000000FF000000000020202020202020200408112244881020201088442211080470
:205BC00000000000FF0000000808080808080808FFFFFFFF00000000F0F0F0F0F0F0F0F00A
:205BE000000000000000FF0002020202020202020000000000FFFFFF070707070707070761
:205C0000000808082A1C080010FE207C0202FC0000FC020000807E003C08107E08100C0082
:205C200040404040444438008482828282906000849E84849CA65C00107E087E04026018CE
:205C40000C18306030180C009E8080808090DE00107E107E10709C7238549292929264004E
:205C6000444444640408100020F820F822221C007010147E9494640060009CA2C2821C00AC
:205C80004444FE4458403E0020FC405E80A0BE0008FE08384838081020222C3040807E0012
:205CA00022F925242424480020FA41449CA61C00E026458484887000FE0408101008040072
:205CC00020FE1008442018001020207048888600807C0202020418007C08102C420224189E
:205CE00084BE8484848448001E101010000000000020702078946800000058E42820100004
:205D000020E42A3262A2240004447C4AB29766003800104A4A8A300020FC207CAA92640050
:205D200018003C420204080010007C081028460020FD217CA2A26400484C32E22410100857
:205D4000089CAACACA8C1800080E0808788E78009E849E849CA6DC000020508804020200B7
:205D600020E62C3464A4220004447C4AB29264007C08103C421A241820E42A3266AB2600DE
:205D800020FD2160A0623E0000000000080808780000484444442000000010B8D4983000FD
:205DA00010FE2074B8487E000000000000402010002000780404080000002038207860005B
:205DC000705070000000000000000000000020000020007810304C00000000F80404180037
:205DE000209040000000000000000000007050700020742078A468000000001C000000002F
:205E00001C1C3E1C08003E00FFF7F7F7D5E3F7FFFFF7E3D5F7F7F7FFFFFFF7FB81FBF7FF24
:205E2000FFFFEFDF81DFEFFFBBBBBB83BBBBBBFFE3DDBFBFBFDDE3FF18247EFF5A24000071
:205E4000E047427E4247E000223E2A0808497F411C1C083E080814220011D2FCD2110000C9
:205E600000884B3F4B880000221408083E081C1C3C7EFFDBFFE77E3C3C4281A58199423C09
:205E80003E22223E22223E003E223E223E224200082A2A081422410008093A0C1C2A49009D
:205EA00008083E081C2A490008143E493E1C7F000008083E08087F0008487E483E087F00C9
:205EC000203E483C287E0800047E547F527F0A000814227F1212240038127F173B5214007C
:205EE0007F49497F4141410022143E083E0808000C12103810103E0000C0C854545522001A
:205F0000000000000002FF020202020202020702020202020202FF0200002050880502005D
:205F2000000E1122C404020100FF008142428100007088442320408000C4A4948F94A4C40A
:205F400000232529F12925238890A0C0C0A898B8A8B0B8C0C0A09088804020101F20408007
:205F600000002424E724240008083E00003E0808081020100804020455AA55AA55AA55AAB8
:205F8000000000000000000000707070000000000007070700000000007777770000000037
:205FA0000000000000707070007070700070707000070707007070700077777700707070D7
:205FC0000000000000070707007070700007070700070707000707070077777700070707A3
:205FE000000000000077777700707070007777770007070700777777007777770077777743
:20600000C34A00C3E607C30E09C31809C32009C37F00C33509C38109C39909C3BD08C332A7
:206020000AC33604C37504C3D804C3F804C38805C3C701C308030000C33810C35803C3E545
:2060400002C3FA02C3AB02C3BE0231F010ED56CDC90F3E16D7063C217011CDD80F219203FA
:206060003EC3323810223910210405229E11CDBE02114101DFCDC00A180811F1101896C346
:20608000260931F010118200D5CD09003E2AD711A311CD03001AFE2AC2540C131AFE47CAEE
:2060A0005901FE23CA1202FE4DCA0F0CFE53CA820CFE26CA0E0EFE4C281F00000000FE52C3
:2060C000CAAA01FE50CA1202C39B0ACDE800CD2D00380A11C401CFDFC9CDE800EFDA670193
:2060E0002A06117CFE12D8E9CD27003895CF113801DF18861100D00E1906281ACDCE0BCDF8
:206100000F011310F63E0DCD0F010D20ECC9D5F5DBFEE60DB72807CD1E00287718F2F1D378
:20612000FF3E80D3FEDBFEE60DFE0120F8AFD3FEC9464F554E44200D4C4F2E200DC34901F9
:2061400000204D5A903730300DD3E111F0FFD5212E07010500EDB0C900131AFE4F20041348
:20616000131313CDC00CE9FE02C8CF11B501DFC93EFF329D11C9AF18F92100F07EB7C0E9C9
:20618000C5D5E51ABE200B052808FE0D2804132318F1E1D1C1C9F5C3AD0D3EFFD3E0C9115A
:2061A0003101DF11F110DFC3E30FCDE800CDE30FEFC3D1000043450D36FF3A7011B72002D3
:2061C00036EFAFC94F4B0DC5D5E53E0232A01106011AFE0D2802FEC8282EFECF281EFED77F
:2061E0002822FE2321710220032E8913CD1C0238E0CDC8023815CDAB024118D53E0332A011
:20620000111318CD3E0118F6CDC802F5CDBE02F1188013CD1F04D8CD0F0118F6C506081AD3
:20622000BE280923232310F83713C1C923D55E2356EB7CB728093AA0113D28032918FA225C
:20624000A1113E0232A011D1131A47E6F0FE3028053A9F1118071378E60F329F114F060033
:2062600021A102094E3A9E1147AF8110FDC14FAFC943770744A70645ED0546980547FC04FB
:2062800041710442F503520000430C0744470645980546480547B40441310442BB03520099
:2062A000000102030406080C1018202AA1117CB7280CD5EB2104E073723E01D118063E36E3
:2062C0003207E0AF3208E0C92100E036F8237EE680200237C93A08E00F38FA3A08E00F30F7
:2062E000FA10F2AFC9C5E5217104CDAE020632AFCD5B0710FAE1C1C3BE02F5C5E60F473EF4
:206300000890329E11C1F1C9F3C5D5E5329B113EF0329C1121C0A8AFED52E523EB3E7432DE
:2063200007E03EB03207E02106E073722B360A36003E803207E0234E7EBA20FB79BB20F7FC
:206340002B0000003612367A23D14E7EBA20FB79BB20F7E1D1C1FBC9E53E803207E0210620
:20636000E0F35E56FB7BB2CA7903AF21C0A8ED52DA8303EB3A9B11E1C911C0A83A9B11EE89
:2063800001E1C9F32106E07E2F5F7E2F57FB13C37C03F5C5D5E53A9B11EE01329B113E8013
:2063A0003207E02106E05E5621C0A8192B2BEB2106E07372E1D1C1F1FBC97CCDC3037DCDB9
:2063C000C303C9F5E6F00F0F0F0FCDDA03CD1200F1E60FCDDA03D73E20C9D5E521E903E663
:2063E0000F5F1600197EE1D1C930313233343536373839414243444546C5E501001021E9A0
:2064000003BE2003791806230C0520F537E1C1C9D5CD1F04380767CD1F0438016FD1C9C5B4
:206420001A13C3F106380D070707074F1A13CDF9033801B1C1C9F3D5C5E516D71ECC21F001
:2064400010018000CD3307CDB206DA63057BFECC2011CD0900D5116C04CD150011F110CD7A
:206460001500D1CDB807CD8D04C3630557524954494E47200DF3D5C5E516D71E532A0211C3
:20648000E5C12A041178B1CAD404C34404D5C5E53A3710573EF83200E07ECDA5073A01E090
:2064A000E608200337182D230B78B1C299042A97117CCDA5077DCDA507CD800715C2C404E9
:2064C000B7C3D4040600CD670705C2C604E1C1C5E5C39904E1C1D1C9F3D5C5E516D21ECC6C
:2064E00001800021F010CDB206DA8205CD5E06DA8205CD1005C36305F3D5C5E516D21E53AA
:206500002A0211E5C12A041178B1CA6305C3E604D5C5E52A36100101E01102E0CD01063881
:2065200061CD55061AE62028F354210000229711E1C1C5E5CD2406384977230B78B120F4B2
:206540002A9711CD2406383A5FCD24063834BD20237BBC201F180B3E01323710C93E0218CC
:20656000F800AFE1C1D1CD0007F53A9C11FEF02001FBF1C915CA7C0562C316053E0137C3B4
:2065800063053E0237C36305F3D5C5E52A0211E5C12A041116D21E5378B1CA6305CD3307A2
:2065A000CDB206DA8205CD5E06DA8205CDB205C36305D5C5E52A36100101E01102E0CD0122
:2065C0000638BFCD55061AE62028F354E1C1C5E5CD240638ADBE20A4230B78B120F22A9931
:2065E00011CD2406BC2095CD2406BD208F15CA620562C3B8057806C0803002D64047C33A4D
:20660000083EF93200E0000AE604C20F0637C91AE620C207060AE608C21D0637C91AE62072
:20662000CA1506C9C5D5E52100080101E01102E0CD0106381CCD55061AE620280AE52A97E7
:206640001123229711E1377D176F2520E3CD01067DE1D1C1C93A35103D20FD2000C9C5D510
:20666000E52128287BFECC28032114142295110101E01102E02A9511CD0106381ECD55064C
:206680001AE62028F02520F0CD0106380ECD55061AE62020E02D20F0CD0106E1D1C1C9C21C
:2066A000F5053E282A71119547CDB10FCDD80FC3EE07C5D5E50E0A3A02E0E6102805AFE193
:2066C000D1C1C93E062103E0773C770D20E9CF7AFED72806112207DF1808112907DF1124FD
:2066E00007DF3A02E0E61020D5CD440A20F43718CEFE2F2806CDF903C325041A13C3340429
:20670000F5C5D5060A3A02E0E6102004D1C1F1C93E063203E03E073203E005C20507D1C140
:20672000F1C97F20504C41590D7F5245430DD3E0C30000C5D5E511000078B1200BEB229759
:2067400011229911E1D1C1C97EE52608073001132520F9E1230B18E13A36103D20FDC93A21
:20676000370018F4000000F53E033203E0CD5F073E023203E0CD5F07F1C908C3E40900005E
:20678000F53E033203E0CD5F07CD5F073E023203E0CD5F07CD6207F1C93E003234102144B7
:2067A0002E223510C9C50608CD800707DC8007D4670705C2AB07C1C9C5D57B01F82A112834
:2067C00028FECCCACC0701BE0A111414CD67070B78B120F8CD80071520FACD67071D20FAAC
:2067E000CD8007D1C1C9F5C5E5D5AF329311CDB309473A9D11B7CC6D0C78E6F0FEC02037DA
:2068000078FECD2856FEC9281DFECA2814FECBCAB308FEC8280BFEC728073A9311B7201C9B
:2068200078CDDC0D18C8217011AFBE20013C77D6062F3203E018B7CD440A286A78CDA60DD3
:20684000CDB50DFE6220A72193117E2F77189FFE10CA420FFED5FE05C39F062A71115C165D
:206860000021731119EB1AB70128002A7111C27A08131AB7CA7D08C37B08250E502E00CD8E
:20688000B40FD1D5C5CDA60DEDB0C1E1E5417ECDCE0B772310F8360D2B7EFE2028F8CD0622
:2068A00000D1E1C1F1C978FE12CAF60DFE49CA290E189CE1E5361B23360D18E200CDCA0844
:2068C000FEF02002AFC9CDCE0BC9C5D5E5CD500A780738063EF0E1D1C1C907D2EC08060021
:2068E0002108000911C90A197EC3D6083A7011B7C2FD08060021C90A097EC3D60879E6F0A0
:206900000F4779E60F80C6A06F2600C3E408AF3294113ECDCDDC0DC93A9411B7C8C3060052
:206920003E20CD3509C9CD0C003A9411B7C8D60A38F420FAC9FE0DCA0E09C54F47CD960154
:20694000CD460979C1C979CDB90B4FE6F0FEF0C8FEC079C27009FEC7D27009CDDC0DFEC33A
:20696000CA7309FEC5CA6B09FEC6C0AF329411C9CDB50D3A94113CFE503802D650329411CE
:20698000C9F5C5D50605CD96011AFE0DCADF0F4FCD46091310F3C38409F5C5D50605CD9685
:2069A000011AFE0DCADF0FCDB90BCD70091310F1C39C09C5D5E5CDB10FCDA60D7E328E11CB
:2069C000228F11219211CDB8013200E03291112F3200E01614CDFF09CD500A7807DAE60B14
:2069E00015C2D509CDFF09CDCA08FEF0CA7A07F5CDA60D3A8E112A8F1177F1E1D1C1C9F584
:206A0000E53A02E00707DA250A3A91110FDA220A3A92112A8F11CDA60D773A9111EE0132D2
:206A20009111E1F1C93A91110FD2220A3A8E11C3130A3EF83200E0003A01E02FE621C244D8
:206A40000AC601C93EF83200E0003A01E0E680C9D5E506FA160005783200E0FEEF20044258
:206A6000E1D1C9FEF8281F3A01E02FB728E85FCBFA78E60F070707074F3E083D2804CB03D4
:206A800030F9814F18D03A01E02F5FE6212802CBF27BE6DE28C018D6CD3E00FE56CACB0075
:206AA000FE43C0131AFE41CA9E07FE31CA5705FE32CA5D05FE42C2B80C212215223510C9FB
:206AC000CD9907CD5D05C37601CD4F2CF0C92BF0CACD1B39F0C93EF0CAF0F0F06968551A18
:206AE00019F0F0F04A366D5A3D181716151413121153734670715D3372100F0E0D0C0B0A3B
:206B00000976774356785E1E3C08070605040302015F1F1D321C44415C28272625242322C5
:206B20002152676665646362612E2F2920002A6A6B5751546000DDDE592D49C4C3C1C2C7CA
:206B4000C84540C4C3C1C2C5C6F0C7F0C3CDF0F0F0F0C8F0C4CDF0F0CBC500C1CBF03C3EAD
:206B6000DCC600C2F0F07C7ED8CDBC8DF0C999F0CAF0F0F0B8B4A091868187979682849C13
:206B800094AAAB8F8CADB08EA28A839088929A9398A18995A6A5A485A3ACAEAF8B00A7A82F
:206BA000A99BBFC4C3C1C2C7C8F0C7F0C3CDF0BDBFC500C1F0F0BCBEDBC5E5FE17381C21A7
:206BC000C60C01E000EDB1201A3EDF91180AC5E521C60C4F0600097EE1C1C9FE113804C665
:206BE000B018F5AF18F23A3410B7C2D3097908B9CAE0090604CDCA08E63F57CDFF09CDCACE
:206C000008E63FBAC2E7090B78B1CAE40918EC13CD10040610CD300CCDCA08B72805FECB8D
:206C2000C810F2CDB309FECD28E9B7C0060118E5C5CDBA030608C5E5AFD77ECDC30323AF3A
:206C4000D710F7D7E1C17ECDB90BCDB50D2310F6C1C30600CDC00C1EA8CD1F043805771376
:206C60002318F63EA9BBD0CDBA03C38E00C5E52A36107DFE1038032E5024CDAE020607C3C7
:206C8000EF02131AFE53CA7001FE47CA7601CDC00C220411E51EAACD1004D1ED522322020F
:206CA0001111AF11CDC00C22061111F11021B411011000EDB03E0D12CD9F01E7D22400C90A
:206CC000CD1004D0D1C9204142434445464748494A4B4C4D4E4F50515253545556575859C4
:206CE0005AFBCDDDCBD1303132333435363738392D3D3B2F2E2CE5F4ECDAE3E2D7D4E6E8E1
:206D0000C2C1C4C7CFCA20E1FEC8FA5FF8F1F73FCCDBDCE9F53A5E3C5BF35D40C93EFC5C0E
:206D2000C6DFD0CED3D2FF2122232425262728292B2ADEF6EBEAC3C5EFF0E4E7EEEDE0FD37
:206D4000D8D5F2F9D9D620A19A9F9C92AA9798A6AFA9B8B3B0B79EA09DA496A5ABA39BBDBB
:206D6000A2BB9982878CBCA7AC91939495B4B5B6AEADBAB2B9A8B183888D8684898EBF8537
:206D80008A8FBE818B907F11121314151660616263646566676870711173747576777879DC
:206DA0007A7B7C7D7E69F53A02E00730FA3A02E00738FAF1C9F5C5D5E547CDB10F702A715A
:206DC000117DFE27C2900E5C1600217311197EB7C2900E233601233600C3900EF5C5D5E553
:206DE00047E6F0FEC0207FA8FE0DCA8B0FFE0B3075260E6F6EE92134107E2F77C3EE070019
:206E000032748490AEBFC5F80BE1F2C3490F11A311D5211B0E010C00EDB0C92102E0CB9ED2
:206E2000CBC6CB86C38009DF00219D1118CB00C37D08CD9601AF3203E001C0031100D0215D
:206E400028D0EDB0EB0628CDD80F011A00117311217411EDB036003A7311B7C26A0ECD9695
:206E6000013E013203E0C3DE0F002A711125227111C3390E2A71117CFE18CA320E2422718F
:206E800011C3DE0F2A71117CB7CADE0F25C37E0E2A71117DFE27D29D0E2CC37E0E2E00248F
:206EA0007CFE19DA7E0E2618227111C3320E2A71117DB728042DC37E0E2E2725F27E0E2153
:206EC0000000C37E0ECDA60D0E192100D00628CDD80F0DC2CD0E217311061BCDD80FC3BF43
:206EE0000E217011AFBE18013C77D6062F3203E0188F217011AF18F02A71117CB5CADE0FF5
:206F00007DB720165C1600217311197EB7200BCDB10FCDA60D2B360018942A71115C1C1623
:206F200000217311197E47B73E2828023E502A7111954F0600CDB10FE5D11BCDA60DEDB0E8
:206F400018D3CDF400C3EE07002A71115C1C1600217311197EB70E002A71112E2728022443
:206F60000CCDB40F7EB7C2DE0FE52A71113E27954779B728043E288047D1D5E12BCDA60D04
:206F80007E1236002B1B10F8C3DE0F2A71115C1C1600217311197EB72A7111CA9D0E2E00B1
:206FA0007CFE1728052424C37E0E24227111C3320E2A7111C5D5E5C111280021D8CF1905A6
:206FC000F2BE0F060009D1C1C92103E0368A360736053E013203E0C9AF772310FCC9E1D15F
:206FE000C1F1C93E3AD72A0411CDBA03EB2A0211192BCDF80F2A06113E2DD7CDBA03AFC939
:20700000FFFFFFFFFFFFFFFFFFFFFFFFFFFFFFFFFFFFFFFFFFFFFFFFFFFFFFFFFFFFFFFF90
:20702000FFFFFFFFFFFFFFFFFFFFFFFFFFFFFFFFFFFFFFFFFFFFFFFFFFFFFFFFFFFFFFFF70
:20704000FFFFFFFFFFFFFFFFFFFFFFFFFFFFFFFFFFFFFFFFFFFFFFFFFFFFFFFFFFFFFFFF50
:20706000FFFFFFFFFFFFFFFFFFFFFFFFFFFFFFFFFFFFFFFFFFFFFFFFFFFFFFFFFFFFFFFF30
:020000040003F7
:00000001FF
